{
  "_format": "hh-sol-artifact-1",
  "contractName": "M87Contract",
  "sourceName": "contracts/M87Contract.sol",
  "abi": [
    {
      "anonymous": false,
      "inputs": [
        {
          "indexed": false,
          "internalType": "uint8",
          "name": "version",
          "type": "uint8"
        }
      ],
      "name": "Initialized",
      "type": "event"
    },
    {
      "anonymous": false,
      "inputs": [
        {
          "indexed": true,
          "internalType": "address",
          "name": "previousOwner",
          "type": "address"
        },
        {
          "indexed": true,
          "internalType": "address",
          "name": "newOwner",
          "type": "address"
        }
      ],
      "name": "OwnershipTransferred",
      "type": "event"
    },
    {
      "anonymous": false,
      "inputs": [
        {
          "indexed": true,
          "internalType": "bytes32",
          "name": "role",
          "type": "bytes32"
        },
        {
          "indexed": true,
          "internalType": "bytes32",
          "name": "previousAdminRole",
          "type": "bytes32"
        },
        {
          "indexed": true,
          "internalType": "bytes32",
          "name": "newAdminRole",
          "type": "bytes32"
        }
      ],
      "name": "RoleAdminChanged",
      "type": "event"
    },
    {
      "anonymous": false,
      "inputs": [
        {
          "indexed": true,
          "internalType": "bytes32",
          "name": "role",
          "type": "bytes32"
        },
        {
          "indexed": true,
          "internalType": "address",
          "name": "account",
          "type": "address"
        },
        {
          "indexed": true,
          "internalType": "address",
          "name": "sender",
          "type": "address"
        }
      ],
      "name": "RoleGranted",
      "type": "event"
    },
    {
      "anonymous": false,
      "inputs": [
        {
          "indexed": true,
          "internalType": "bytes32",
          "name": "role",
          "type": "bytes32"
        },
        {
          "indexed": true,
          "internalType": "address",
          "name": "account",
          "type": "address"
        },
        {
          "indexed": true,
          "internalType": "address",
          "name": "sender",
          "type": "address"
        }
      ],
      "name": "RoleRevoked",
      "type": "event"
    },
    {
      "anonymous": false,
      "inputs": [
        {
          "indexed": false,
          "internalType": "address",
          "name": "userAddress",
          "type": "address"
        },
        {
          "indexed": false,
          "internalType": "uint256",
          "name": "level",
          "type": "uint256"
        },
        {
          "indexed": false,
          "internalType": "uint256",
          "name": "reputation",
          "type": "uint256"
        },
        {
          "indexed": false,
          "internalType": "uint256",
          "name": "parameterCount",
          "type": "uint256"
        },
        {
          "components": [
            {
              "internalType": "uint256",
              "name": "parameter",
              "type": "uint256"
            },
            {
              "internalType": "uint256",
              "name": "value",
              "type": "uint256"
            }
          ],
          "indexed": false,
          "internalType": "struct M87Interfaces.UserParameter[]",
          "name": "parameters",
          "type": "tuple[]"
        }
      ],
      "name": "UpdatedUserParametersEvent",
      "type": "event"
    },
    {
      "inputs": [],
      "name": "DEFAULT_ADMIN_ROLE",
      "outputs": [
        {
          "internalType": "bytes32",
          "name": "",
          "type": "bytes32"
        }
      ],
      "stateMutability": "view",
      "type": "function"
    },
    {
      "inputs": [],
      "name": "__M87Contract_init",
      "outputs": [],
      "stateMutability": "nonpayable",
      "type": "function"
    },
    {
      "inputs": [
        {
          "internalType": "address",
          "name": "_admin",
          "type": "address"
        }
      ],
      "name": "addAdmin",
      "outputs": [],
      "stateMutability": "nonpayable",
      "type": "function"
    },
    {
      "inputs": [
        {
          "internalType": "bytes32",
          "name": "role",
          "type": "bytes32"
        }
      ],
      "name": "getRoleAdmin",
      "outputs": [
        {
          "internalType": "bytes32",
          "name": "",
          "type": "bytes32"
        }
      ],
      "stateMutability": "view",
      "type": "function"
    },
    {
      "inputs": [
        {
          "internalType": "address",
          "name": "userAddress",
          "type": "address"
        }
      ],
      "name": "getUserProfile",
      "outputs": [
        {
          "components": [
            {
              "internalType": "uint256",
              "name": "level",
              "type": "uint256"
            },
            {
              "internalType": "uint256",
              "name": "reputation",
              "type": "uint256"
            },
            {
              "internalType": "uint256",
              "name": "parameterCount",
              "type": "uint256"
            },
            {
              "components": [
                {
                  "internalType": "uint256",
                  "name": "parameter",
                  "type": "uint256"
                },
                {
                  "internalType": "uint256",
                  "name": "value",
                  "type": "uint256"
                }
              ],
              "internalType": "struct M87Interfaces.UserParameter[]",
              "name": "parameters",
              "type": "tuple[]"
            }
          ],
          "internalType": "struct M87Interfaces.UserProfile",
          "name": "",
          "type": "tuple"
        }
      ],
      "stateMutability": "view",
      "type": "function"
    },
    {
      "inputs": [
        {
          "internalType": "bytes32",
          "name": "role",
          "type": "bytes32"
        },
        {
          "internalType": "address",
          "name": "account",
          "type": "address"
        }
      ],
      "name": "grantRole",
      "outputs": [],
      "stateMutability": "nonpayable",
      "type": "function"
    },
    {
      "inputs": [
        {
          "internalType": "bytes32",
          "name": "role",
          "type": "bytes32"
        },
        {
          "internalType": "address",
          "name": "account",
          "type": "address"
        }
      ],
      "name": "hasRole",
      "outputs": [
        {
          "internalType": "bool",
          "name": "",
          "type": "bool"
        }
      ],
      "stateMutability": "view",
      "type": "function"
    },
    {
      "inputs": [
        {
          "internalType": "address",
          "name": "",
          "type": "address"
        }
      ],
      "name": "isAdmin",
      "outputs": [
        {
          "internalType": "bool",
          "name": "",
          "type": "bool"
        }
      ],
      "stateMutability": "view",
      "type": "function"
    },
    {
      "inputs": [
        {
          "internalType": "address",
          "name": "",
          "type": "address"
        }
      ],
      "name": "isSuperAdmin",
      "outputs": [
        {
          "internalType": "bool",
          "name": "",
          "type": "bool"
        }
      ],
      "stateMutability": "view",
      "type": "function"
    },
    {
      "inputs": [],
      "name": "owner",
      "outputs": [
        {
          "internalType": "address",
          "name": "",
          "type": "address"
        }
      ],
      "stateMutability": "view",
      "type": "function"
    },
    {
      "inputs": [
        {
          "internalType": "address",
          "name": "_admin",
          "type": "address"
        }
      ],
      "name": "removeAdmin",
      "outputs": [],
      "stateMutability": "nonpayable",
      "type": "function"
    },
    {
      "inputs": [],
      "name": "renounceOwnership",
      "outputs": [],
      "stateMutability": "nonpayable",
      "type": "function"
    },
    {
      "inputs": [
        {
          "internalType": "bytes32",
          "name": "role",
          "type": "bytes32"
        },
        {
          "internalType": "address",
          "name": "account",
          "type": "address"
        }
      ],
      "name": "renounceRole",
      "outputs": [],
      "stateMutability": "nonpayable",
      "type": "function"
    },
    {
      "inputs": [
        {
          "internalType": "bytes32",
          "name": "role",
          "type": "bytes32"
        },
        {
          "internalType": "address",
          "name": "account",
          "type": "address"
        }
      ],
      "name": "revokeRole",
      "outputs": [],
      "stateMutability": "nonpayable",
      "type": "function"
    },
    {
      "inputs": [
        {
          "internalType": "bytes4",
          "name": "interfaceId",
          "type": "bytes4"
        }
      ],
      "name": "supportsInterface",
      "outputs": [
        {
          "internalType": "bool",
          "name": "",
          "type": "bool"
        }
      ],
      "stateMutability": "view",
      "type": "function"
    },
    {
      "inputs": [
        {
          "internalType": "address",
          "name": "newOwner",
          "type": "address"
        }
      ],
      "name": "transferOwnership",
      "outputs": [],
      "stateMutability": "nonpayable",
      "type": "function"
    },
    {
      "inputs": [
        {
          "components": [
            {
              "internalType": "address",
              "name": "userAddress",
              "type": "address"
            },
            {
              "internalType": "uint256",
              "name": "level",
              "type": "uint256"
            },
            {
              "internalType": "uint256",
              "name": "reputation",
              "type": "uint256"
            },
            {
              "internalType": "uint256",
              "name": "parameterCount",
              "type": "uint256"
            },
            {
              "components": [
                {
                  "internalType": "uint256",
                  "name": "parameter",
                  "type": "uint256"
                },
                {
                  "internalType": "uint256",
                  "name": "value",
                  "type": "uint256"
                }
              ],
              "internalType": "struct M87Interfaces.UserParameter[]",
              "name": "parameters",
              "type": "tuple[]"
            }
          ],
          "internalType": "struct M87Interfaces.UpdateUserParameter",
          "name": "userParameters",
          "type": "tuple"
        }
      ],
      "name": "updateUserParameters",
      "outputs": [],
      "stateMutability": "nonpayable",
      "type": "function"
    },
    {
      "inputs": [
        {
          "internalType": "address",
          "name": "",
          "type": "address"
        },
        {
          "internalType": "uint256",
          "name": "",
          "type": "uint256"
        }
      ],
      "name": "userAttributes",
      "outputs": [
        {
          "internalType": "uint256",
          "name": "",
          "type": "uint256"
        }
      ],
      "stateMutability": "view",
      "type": "function"
    },
    {
      "inputs": [
        {
          "internalType": "address",
          "name": "",
          "type": "address"
        }
      ],
      "name": "userData",
      "outputs": [
        {
          "internalType": "uint256",
          "name": "level",
          "type": "uint256"
        },
        {
          "internalType": "uint256",
          "name": "reputation",
          "type": "uint256"
        },
        {
          "internalType": "uint256",
          "name": "parameterCount",
          "type": "uint256"
        }
      ],
      "stateMutability": "view",
      "type": "function"
    }
  ],
  "bytecode": "0x60808060405234610016576113bb908161001c8239f35b600080fdfe6080604081815260048036101561001557600080fd5b600092833560e01c90816301ffc9a714610cc2575080631785f53c14610c2a578063248a9ca314610c0057806324d7806c14610bc25780632f2ff15d14610b1657806336568abe14610a8457806370480275146109e6578063715018a61461099b5780638da5cb5b1461097257806391d148541461092c578063987ee15614610782578063a217fddf14610767578063c42d6828146105f6578063c8910913146105a8578063d4d4ec2314610246578063d547741f1461020b578063df7f453b146101cd578063e61418c2146101885763f2fde38b146100f457600080fd5b346101845760203660031901126101845761010d610d16565b91610116611181565b6001600160a01b03831615610132578361012f846111d9565b80f35b906020608492519162461bcd60e51b8352820152602660248201527f4f776e61626c653a206e6577206f776e657220697320746865207a65726f206160448201526564647265737360d01b6064820152fd5b8280fd5b5050346101c957806003193601126101c95760209181906001600160a01b036101af610d16565b16815260fe84528181206024358252845220549051908152f35b5080fd5b5050346101c95760203660031901126101c95760209160ff9082906001600160a01b036101f8610d16565b16815260fc855220541690519015158152f35b50903461018457806003193601126101845761012f9135610241600161022f610d31565b93838752606560205286200154610dc7565b61110b565b5090346101845760031990602036830181136105a4576001600160401b0392843591908483116105a05760a090833603011261059c5782519460a08601868110868211176105895784526001600160a01b039281810135848116810361058557875282870193602492838301358652868901976044840135895260608a01936064810135855260848101359182116105815701933660238601121561057d5781850135946102f386610db0565b956103008a519788610d8d565b808752828888019160061b83010191368311610579578301905b82821061054b5750505060808a01948552338b5260fb865260ff888c2054161561051d57600260c954146104db5783518551510361047857505084939451818951168a5260fd8652868a2055865197818151168a5260019889888c2001558251828251168b526002888c20015588808b905b61041b575b5050511692519551905191519480519660a0880194885285880152860152606085015260a0608085015282518091528160c08501930191865b868382106104005788907ffee552680a52415b3b1b0ac1908d737fa3363e723a68de6ff4b5a233ba9ce56588880389a160c95580f35b9091610410859682959651610d47565b9501939291016103ca565b8597969751908c8a89845184101561046c5761043a84610463966112f3565b5101519187875116815260fe8b52818120610456858c516112f3565b515182528b5220556112ce565b8197969761038c565b50505050969596610391565b875162461bcd60e51b81529182018690526038908201527f506172616d6574657220636f756e7420616e6420706172616d746572732061726044820152771c985e481b195b99dd1a081b5d5cdd08189948195c5d585b60421b6064820152608490fd5b875162461bcd60e51b8152918201869052601f908201527f5265656e7472616e637947756172643a207265656e7472616e742063616c6c006044820152606490fd5b875162461bcd60e51b8152918201869052600990820152682737ba1030b236b4b760b91b6044820152606490fd5b8a8236031261057957888b91825161056281610d5c565b84358152828501358382015281520191019061031a565b8d80fd5b8a80fd5b8b80fd5b8880fd5b634e487b7160e01b885260418252602488fd5b8580fd5b8680fd5b8480fd5b5050346101c95760203660031901126101c95760609181906001600160a01b036105d0610d16565b16815260fd60205220805491600260018301549201549181519384526020840152820152f35b5034610184578260031936011261018457825460ff8160081c16159182809361075a575b8015610743575b156106e9575060ff19818116600117855590826106d8575b5061065360ff855460081c1661064e81611237565b611237565b61065c336111d9565b61067060ff855460081c1661064e81611237565b600160c95533845260fc60205282842060018282541617905560fb6020526001838520918254161790556106a2575080f35b60207f7f26b83ff96e1f2b6a682f133852f6798a09c465da95921460cefb38474024989161ff001984541684555160018152a180f35b61ffff191661010117845538610639565b608490602085519162461bcd60e51b8352820152602e60248201527f496e697469616c697a61626c653a20636f6e747261637420697320616c72656160448201526d191e481a5b9a5d1a585b1a5e995960921b6064820152fd5b50303b1580156106215750600160ff831614610621565b50600160ff83161061061a565b5050346101c957816003193601126101c95751908152602090f35b828434610929576020908160031936011261092957826107a0610d16565b916107a9611297565b506107b2611297565b9260018060a01b03169283825260fd855282822054815283825260fd85526001928381842001549486830195865280845260fd87526002828520015491808401918383526107ff84610db0565b9361080c83519586610d8d565b80855261081b601f1991610db0565b01865b8181106108ff5750508686905b610894575b50506060840192835280519688885260a088019451898901525190870152516060860152519460808086015285518092528060c086019601925b8281106108775785870386f35b909192938261088882988751610d47565b9795019392910161086a565b9087999596979184518110156108f4576108e990828a5260fe8852848a20818b528852848a20548551906108c782610d5c565b828252898201526108d882896112f3565b526108e381886112f3565b506112ce565b90919796959961082b565b509896959498610830565b99809697989a845161091081610d5c565b8a81528a8382015282828901015201999796959961081e565b80fd5b50346101845781600319360112610184578160209360ff9261094c610d31565b90358252606586528282206001600160a01b039091168252855220549151911615158152f35b5050346101c957816003193601126101c95760975490516001600160a01b039091168152602090f35b83346109295780600319360112610929576109b4611181565b609780546001600160a01b0319811690915581906001600160a01b03166000805160206113668339815191528280a380f35b503461018457602036600319011261018457610a00610d16565b33845260fc602052610a1760ff8486205416611307565b6001600160a01b031680845260fb6020528284205490919060ff16610a4e5750825260fb6020528120805460ff1916600117905580f35b606490602084519162461bcd60e51b8352820152601060248201526f20b63932b0b23c9030b71030b236b4b760811b6044820152fd5b508290346101c957826003193601126101c957610a9f610d31565b90336001600160a01b03831603610abb579061012f913561110b565b608490602085519162461bcd60e51b8352820152602f60248201527f416363657373436f6e74726f6c3a2063616e206f6e6c792072656e6f756e636560448201526e103937b632b9903337b91039b2b63360891b6064820152fd5b50346101845781600319360112610184573590610b31610d31565b908284526065602052610b4960018286200154610dc7565b828452606560209081528185206001600160a01b039093168086529290528084205460ff1615610b77578380f35b82845260656020528084208285526020528320600160ff1982541617905533917f2f8788117e7eff1d82e926ec794901d17c78024a50270940304540a733656f0d8480a43880808380f35b5050346101c95760203660031901126101c95760209160ff9082906001600160a01b03610bed610d16565b16815260fb855220541690519015158152f35b50346101845760203660031901126101845781602093600192358152606585522001549051908152f35b503461018457602036600319011261018457610c44610d16565b33845260fc602052610c5b60ff8486205416611307565b6001600160a01b031680845260fb6020528284205490919060ff1615610c905750825260fb6020528120805460ff1916905580f35b606490602084519162461bcd60e51b8352820152600c60248201526b2737ba1030b71030b236b4b760a11b6044820152fd5b92505034610184576020366003190112610184573563ffffffff60e01b81168091036101845760209250637965db0b60e01b8114908115610d05575b5015158152f35b6301ffc9a760e01b14905038610cfe565b600435906001600160a01b0382168203610d2c57565b600080fd5b602435906001600160a01b0382168203610d2c57565b90602060409280518352015160208201520190565b604081019081106001600160401b03821117610d7757604052565b634e487b7160e01b600052604160045260246000fd5b601f909101601f19168101906001600160401b03821190821017610d7757604052565b6001600160401b038111610d775760051b60200190565b60009080825260209060658252604090818420338552835260ff828520541615610df15750505050565b8151936001600160401b033360608701828111888210176110d4578552602a875285870193853686378751156110c057603085538751916001928310156110ac57607860218a015360295b83811161104257506110125790855192608084019084821090821117610ffe57865260428352868301936060368637835115610fea57603085538351821015610fea5790607860218501536041915b818311610f7c57505050610f4c5792610f1a6048610f0b9794610f3e946044989785519a8b93610ee28b86019a76020b1b1b2b9b9a1b7b73a3937b61d1030b1b1b7bab73a1604d1b8c5251809260378801906110e8565b8401917001034b99036b4b9b9b4b733903937b6329607d1b6037840152518093868401906110e8565b01036028810189520187610d8d565b5194859362461bcd60e51b85526004850152518092816024860152858501906110e8565b601f01601f19168101030190fd5b60648585519062461bcd60e51b825280600483015260248201526000805160206113468339815191526044820152fd5b909192600f81166010811015610fd6576f181899199a1a9b1b9c1cb0b131b232b360811b901a610fac8587611210565b5360041c928015610fc257600019019190610e8b565b634e487b7160e01b82526011600452602482fd5b634e487b7160e01b83526032600452602483fd5b634e487b7160e01b81526032600452602490fd5b634e487b7160e01b85526041600452602485fd5b60648787519062461bcd60e51b825280600483015260248201526000805160206113468339815191526044820152fd5b90600f81166010811015611098576f181899199a1a9b1b9c1cb0b131b232b360811b901a611070838c611210565b5360041c9080156110845760001901610e3c565b634e487b7160e01b86526011600452602486fd5b634e487b7160e01b87526032600452602487fd5b634e487b7160e01b85526032600452602485fd5b634e487b7160e01b84526032600452602484fd5b634e487b7160e01b84526041600452602484fd5b60005b8381106110fb5750506000910152565b81810151838201526020016110eb565b906000918083526065602052604083209160018060a01b03169182845260205260ff60408420541661113c57505050565b8083526065602052604083208284526020526040832060ff1981541690557ff6391f5c32d9c69d2a47ea670b442974b53935d1edc7fd64eb21e047a839171b339380a4565b6097546001600160a01b0316330361119557565b606460405162461bcd60e51b815260206004820152602060248201527f4f776e61626c653a2063616c6c6572206973206e6f7420746865206f776e65726044820152fd5b609780546001600160a01b039283166001600160a01b031982168117909255909116600080516020611366833981519152600080a3565b908151811015611221570160200190565b634e487b7160e01b600052603260045260246000fd5b1561123e57565b60405162461bcd60e51b815260206004820152602b60248201527f496e697469616c697a61626c653a20636f6e7472616374206973206e6f74206960448201526a6e697469616c697a696e6760a81b6064820152608490fd5b60405190608082016001600160401b03811183821017610d7757604052606080836000815260006020820152600060408201520152565b60001981146112dd5760010190565b634e487b7160e01b600052601160045260246000fd5b80518210156112215760209160051b010190565b1561130e57565b60405162461bcd60e51b815260206004820152600f60248201526e2737ba1039bab832b91030b236b4b760891b6044820152606490fdfe537472696e67733a20686578206c656e67746820696e73756666696369656e748be0079c531659141344cd1fd0a4f28419497f9722a3daafe3b4186f6b6457e0a2646970667358221220e4d362f2533958a827bd65d52a58d24f1556488422f25f1aa7cec77fdd1884b264736f6c63430008110033",
  "linkReferences": {},
  "deployedLinkReferences": {}
}