{
  "_format": "hh3-artifact-1",
  "contractName": "TraceabilityMerkleRegistry",
  "sourceName": "contracts/TraceabilityMerkleRegistry.sol",
  "abi": [
    {
      "inputs": [
        {
          "internalType": "address",
          "name": "initialCommitter",
          "type": "address"
        }
      ],
      "stateMutability": "nonpayable",
      "type": "constructor"
    },
    {
      "inputs": [],
      "name": "BatchNotFound",
      "type": "error"
    },
    {
      "inputs": [],
      "name": "InvalidRange",
      "type": "error"
    },
    {
      "inputs": [],
      "name": "InvalidRoot",
      "type": "error"
    },
    {
      "inputs": [],
      "name": "RootAlreadyCommitted",
      "type": "error"
    },
    {
      "inputs": [],
      "name": "Unauthorized",
      "type": "error"
    },
    {
      "inputs": [],
      "name": "ZeroAddress",
      "type": "error"
    },
    {
      "anonymous": false,
      "inputs": [
        {
          "indexed": true,
          "internalType": "bytes32",
          "name": "batchCodeHash",
          "type": "bytes32"
        },
        {
          "indexed": true,
          "internalType": "uint256",
          "name": "batchId",
          "type": "uint256"
        },
        {
          "indexed": false,
          "internalType": "string",
          "name": "batchCode",
          "type": "string"
        }
      ],
      "name": "BatchCodeBound",
      "type": "event"
    },
    {
      "anonymous": false,
      "inputs": [
        {
          "indexed": true,
          "internalType": "address",
          "name": "account",
          "type": "address"
        }
      ],
      "name": "CommitterAdded",
      "type": "event"
    },
    {
      "anonymous": false,
      "inputs": [
        {
          "indexed": true,
          "internalType": "address",
          "name": "oldCommitter",
          "type": "address"
        },
        {
          "indexed": true,
          "internalType": "address",
          "name": "newCommitter",
          "type": "address"
        }
      ],
      "name": "CommitterChanged",
      "type": "event"
    },
    {
      "anonymous": false,
      "inputs": [
        {
          "indexed": true,
          "internalType": "address",
          "name": "account",
          "type": "address"
        }
      ],
      "name": "CommitterRemoved",
      "type": "event"
    },
    {
      "anonymous": false,
      "inputs": [
        {
          "indexed": true,
          "internalType": "address",
          "name": "previousOwner",
          "type": "address"
        },
        {
          "indexed": true,
          "internalType": "address",
          "name": "newOwner",
          "type": "address"
        }
      ],
      "name": "OwnershipTransferred",
      "type": "event"
    },
    {
      "anonymous": false,
      "inputs": [
        {
          "indexed": false,
          "internalType": "address",
          "name": "account",
          "type": "address"
        }
      ],
      "name": "Paused",
      "type": "event"
    },
    {
      "anonymous": false,
      "inputs": [
        {
          "indexed": true,
          "internalType": "uint256",
          "name": "batchId",
          "type": "uint256"
        },
        {
          "indexed": true,
          "internalType": "bytes32",
          "name": "merkleRoot",
          "type": "bytes32"
        },
        {
          "indexed": false,
          "internalType": "uint256",
          "name": "fromEventId",
          "type": "uint256"
        },
        {
          "indexed": false,
          "internalType": "uint256",
          "name": "toEventId",
          "type": "uint256"
        },
        {
          "indexed": false,
          "internalType": "uint64",
          "name": "timestamp",
          "type": "uint64"
        },
        {
          "indexed": true,
          "internalType": "address",
          "name": "commiter",
          "type": "address"
        }
      ],
      "name": "RootCommitted",
      "type": "event"
    },
    {
      "anonymous": false,
      "inputs": [
        {
          "indexed": false,
          "internalType": "address",
          "name": "account",
          "type": "address"
        }
      ],
      "name": "Unpaused",
      "type": "event"
    },
    {
      "inputs": [
        {
          "internalType": "address",
          "name": "account",
          "type": "address"
        }
      ],
      "name": "addCommitter",
      "outputs": [],
      "stateMutability": "nonpayable",
      "type": "function"
    },
    {
      "inputs": [
        {
          "internalType": "address",
          "name": "",
          "type": "address"
        }
      ],
      "name": "allowedCommitters",
      "outputs": [
        {
          "internalType": "bool",
          "name": "",
          "type": "bool"
        }
      ],
      "stateMutability": "view",
      "type": "function"
    },
    {
      "inputs": [
        {
          "internalType": "uint256",
          "name": "",
          "type": "uint256"
        }
      ],
      "name": "batches",
      "outputs": [
        {
          "internalType": "bytes32",
          "name": "root",
          "type": "bytes32"
        },
        {
          "internalType": "uint256",
          "name": "fromEventId",
          "type": "uint256"
        },
        {
          "internalType": "uint256",
          "name": "toEventId",
          "type": "uint256"
        },
        {
          "internalType": "uint64",
          "name": "timestamp",
          "type": "uint64"
        },
        {
          "internalType": "address",
          "name": "committer",
          "type": "address"
        },
        {
          "internalType": "bool",
          "name": "exists",
          "type": "bool"
        }
      ],
      "stateMutability": "view",
      "type": "function"
    },
    {
      "inputs": [
        {
          "internalType": "uint256",
          "name": "batchId",
          "type": "uint256"
        },
        {
          "internalType": "string",
          "name": "batchCode",
          "type": "string"
        }
      ],
      "name": "bindBatchCode",
      "outputs": [],
      "stateMutability": "nonpayable",
      "type": "function"
    },
    {
      "inputs": [
        {
          "internalType": "bytes32",
          "name": "merkleRoot",
          "type": "bytes32"
        },
        {
          "internalType": "uint256",
          "name": "fromEventId",
          "type": "uint256"
        },
        {
          "internalType": "uint256",
          "name": "toEventId",
          "type": "uint256"
        }
      ],
      "name": "commitMerkleRoot",
      "outputs": [
        {
          "internalType": "uint256",
          "name": "batchId",
          "type": "uint256"
        }
      ],
      "stateMutability": "nonpayable",
      "type": "function"
    },
    {
      "inputs": [
        {
          "internalType": "bytes32",
          "name": "merkleRoot",
          "type": "bytes32"
        },
        {
          "internalType": "uint256",
          "name": "fromEventId",
          "type": "uint256"
        },
        {
          "internalType": "uint256",
          "name": "toEventId",
          "type": "uint256"
        },
        {
          "internalType": "string",
          "name": "batchCode",
          "type": "string"
        }
      ],
      "name": "commitWithBatchCode",
      "outputs": [
        {
          "internalType": "uint256",
          "name": "batchId",
          "type": "uint256"
        }
      ],
      "stateMutability": "nonpayable",
      "type": "function"
    },
    {
      "inputs": [],
      "name": "committer",
      "outputs": [
        {
          "internalType": "address",
          "name": "",
          "type": "address"
        }
      ],
      "stateMutability": "view",
      "type": "function"
    },
    {
      "inputs": [
        {
          "internalType": "uint256",
          "name": "batchId",
          "type": "uint256"
        }
      ],
      "name": "getBatch",
      "outputs": [
        {
          "components": [
            {
              "internalType": "bytes32",
              "name": "root",
              "type": "bytes32"
            },
            {
              "internalType": "uint256",
              "name": "fromEventId",
              "type": "uint256"
            },
            {
              "internalType": "uint256",
              "name": "toEventId",
              "type": "uint256"
            },
            {
              "internalType": "uint64",
              "name": "timestamp",
              "type": "uint64"
            },
            {
              "internalType": "address",
              "name": "committer",
              "type": "address"
            },
            {
              "internalType": "bool",
              "name": "exists",
              "type": "bool"
            }
          ],
          "internalType": "struct TraceabilityMerkleRegistry.MerkleBatch",
          "name": "",
          "type": "tuple"
        }
      ],
      "stateMutability": "view",
      "type": "function"
    },
    {
      "inputs": [
        {
          "internalType": "string",
          "name": "batchCode",
          "type": "string"
        }
      ],
      "name": "getBatchIdsByBatchCode",
      "outputs": [
        {
          "internalType": "uint256[]",
          "name": "",
          "type": "uint256[]"
        }
      ],
      "stateMutability": "view",
      "type": "function"
    },
    {
      "inputs": [
        {
          "internalType": "address",
          "name": "account",
          "type": "address"
        }
      ],
      "name": "isAuthorizedCommitter",
      "outputs": [
        {
          "internalType": "bool",
          "name": "",
          "type": "bool"
        }
      ],
      "stateMutability": "view",
      "type": "function"
    },
    {
      "inputs": [
        {
          "internalType": "bytes32",
          "name": "leaf",
          "type": "bytes32"
        },
        {
          "internalType": "uint256",
          "name": "batchId",
          "type": "uint256"
        },
        {
          "internalType": "bytes32[]",
          "name": "proof",
          "type": "bytes32[]"
        }
      ],
      "name": "isEventIncluded",
      "outputs": [
        {
          "internalType": "bool",
          "name": "",
          "type": "bool"
        }
      ],
      "stateMutability": "view",
      "type": "function"
    },
    {
      "inputs": [],
      "name": "owner",
      "outputs": [
        {
          "internalType": "address",
          "name": "",
          "type": "address"
        }
      ],
      "stateMutability": "view",
      "type": "function"
    },
    {
      "inputs": [],
      "name": "pause",
      "outputs": [],
      "stateMutability": "nonpayable",
      "type": "function"
    },
    {
      "inputs": [],
      "name": "paused",
      "outputs": [
        {
          "internalType": "bool",
          "name": "",
          "type": "bool"
        }
      ],
      "stateMutability": "view",
      "type": "function"
    },
    {
      "inputs": [
        {
          "internalType": "address",
          "name": "account",
          "type": "address"
        }
      ],
      "name": "removeCommitter",
      "outputs": [],
      "stateMutability": "nonpayable",
      "type": "function"
    },
    {
      "inputs": [
        {
          "internalType": "bytes32",
          "name": "",
          "type": "bytes32"
        }
      ],
      "name": "rootSeen",
      "outputs": [
        {
          "internalType": "bool",
          "name": "",
          "type": "bool"
        }
      ],
      "stateMutability": "view",
      "type": "function"
    },
    {
      "inputs": [
        {
          "internalType": "address",
          "name": "newCommitter",
          "type": "address"
        }
      ],
      "name": "setCommitter",
      "outputs": [],
      "stateMutability": "nonpayable",
      "type": "function"
    },
    {
      "inputs": [],
      "name": "totalBatches",
      "outputs": [
        {
          "internalType": "uint256",
          "name": "",
          "type": "uint256"
        }
      ],
      "stateMutability": "view",
      "type": "function"
    },
    {
      "inputs": [
        {
          "internalType": "address",
          "name": "newOwner",
          "type": "address"
        }
      ],
      "name": "transferOwnership",
      "outputs": [],
      "stateMutability": "nonpayable",
      "type": "function"
    },
    {
      "inputs": [],
      "name": "unpause",
      "outputs": [],
      "stateMutability": "nonpayable",
      "type": "function"
    },
    {
      "inputs": [
        {
          "internalType": "bytes32",
          "name": "leaf",
          "type": "bytes32"
        },
        {
          "internalType": "bytes32",
          "name": "root",
          "type": "bytes32"
        },
        {
          "internalType": "bytes32[]",
          "name": "proof",
          "type": "bytes32[]"
        }
      ],
      "name": "verifyWithRoot",
      "outputs": [
        {
          "internalType": "bool",
          "name": "",
          "type": "bool"
        }
      ],
      "stateMutability": "pure",
      "type": "function"
    }
  ],
  "bytecode": "0x608060405234801561000f575f5ffd5b506040516127aa3803806127aa833981810160405281019061003191906102e0565b335f5f6101000a81548173ffffffffffffffffffffffffffffffffffffffff021916908373ffffffffffffffffffffffffffffffffffffffff1602179055505f5f73ffffffffffffffffffffffffffffffffffffffff168273ffffffffffffffffffffffffffffffffffffffff16146100aa57816100ac565b335b90508060015f6101000a81548173ffffffffffffffffffffffffffffffffffffffff021916908373ffffffffffffffffffffffffffffffffffffffff160217905550600160025f8373ffffffffffffffffffffffffffffffffffffffff1673ffffffffffffffffffffffffffffffffffffffff1681526020019081526020015f205f6101000a81548160ff0219169083151502179055505f5f9054906101000a900473ffffffffffffffffffffffffffffffffffffffff1673ffffffffffffffffffffffffffffffffffffffff165f73ffffffffffffffffffffffffffffffffffffffff167f8be0079c531659141344cd1fd0a4f28419497f9722a3daafe3b4186f6b6457e060405160405180910390a360015f9054906101000a900473ffffffffffffffffffffffffffffffffffffffff1673ffffffffffffffffffffffffffffffffffffffff165f73ffffffffffffffffffffffffffffffffffffffff167f3f67cc70f736070aaac75db90cef1ab4047521b73e8a38d02852e8bf1a91e7e060405160405180910390a38073ffffffffffffffffffffffffffffffffffffffff167f77b15bf1925eb6403cdcd3a6b7df1451a6e970b6c273dd573b3b5335fef5a7f960405160405180910390a2505061030b565b5f5ffd5b5f73ffffffffffffffffffffffffffffffffffffffff82169050919050565b5f6102af82610286565b9050919050565b6102bf816102a5565b81146102c9575f5ffd5b50565b5f815190506102da816102b6565b92915050565b5f602082840312156102f5576102f4610282565b5b5f610302848285016102cc565b91505092915050565b612492806103185f395ff3fe608060405234801561000f575f5ffd5b5060043610610135575f3560e01c80638456cb59116100b6578063a44da06f1161007a578063a44da06f14610339578063b32c4d8d14610369578063c7ad2fa21461039e578063dd51ce22146103ce578063e5092429146103ea578063f2fde38b1461041a57610135565b80638456cb59146102a95780638da5cb5b146102b3578063914c2ae2146102d1578063922a6e45146103015780639a7a02381461031d57610135565b80635bc8e8f9116100fd5780635bc8e8f9146101ef5780635c975abb1461020d578063638ccd021461022b57806369ff6abb1461025b5780636dff2aba1461027957610135565b80631579ab831461013957806334702f03146101695780633f4ba83a14610185578063483fc3bb1461018f5780635ac44282146101bf575b5f5ffd5b610153600480360381019061014e9190611bc6565b610436565b6040516101609190611c0b565b60405180910390f35b610183600480360381019061017e9190611bc6565b610535565b005b61018d6106a4565b005b6101a960048036038101906101a49190611cb8565b61077b565b6040516101b69190611c0b565b60405180910390f35b6101d960048036038101906101d49190611d5c565b610793565b6040516101e69190611e5e565b60405180910390f35b6101f76108d5565b6040516102049190611e86565b60405180910390f35b6102156108fa565b6040516102229190611c0b565b60405180910390f35b61024560048036038101906102409190611e9f565b61090c565b6040516102529190611efe565b60405180910390f35b610263610cff565b6040516102709190611efe565b60405180910390f35b610293600480360381019061028e9190611f6c565b610d05565b6040516102a0919061205f565b60405180910390f35b6102b1610d89565b005b6102bb610e61565b6040516102c89190611e86565b60405180910390f35b6102eb60048036038101906102e6919061207f565b610e85565b6040516102f89190611c0b565b60405180910390f35b61031b60048036038101906103169190611bc6565b610ea2565b005b610337600480360381019061033291906120aa565b611076565b005b610353600480360381019061034e9190611bc6565b611257565b6040516103609190611c0b565b60405180910390f35b610383600480360381019061037e9190611d5c565b611274565b60405161039596959493929190612125565b60405180910390f35b6103b860048036038101906103b39190612184565b6112ec565b6040516103c59190611efe565b60405180910390f35b6103e860048036038101906103e39190611bc6565b611487565b005b61040460048036038101906103ff9190612208565b611716565b6040516104119190611c0b565b60405180910390f35b610434600480360381019061042f9190611bc6565b611828565b005b5f5f5f9054906101000a900473ffffffffffffffffffffffffffffffffffffffff1673ffffffffffffffffffffffffffffffffffffffff168273ffffffffffffffffffffffffffffffffffffffff1614806104dd575060015f9054906101000a900473ffffffffffffffffffffffffffffffffffffffff1673ffffffffffffffffffffffffffffffffffffffff168273ffffffffffffffffffffffffffffffffffffffff16145b8061052e575060025f8373ffffffffffffffffffffffffffffffffffffffff1673ffffffffffffffffffffffffffffffffffffffff1681526020019081526020015f205f9054906101000a900460ff165b9050919050565b5f5f9054906101000a900473ffffffffffffffffffffffffffffffffffffffff1673ffffffffffffffffffffffffffffffffffffffff163373ffffffffffffffffffffffffffffffffffffffff16146105ba576040517f82b4290000000000000000000000000000000000000000000000000000000000815260040160405180910390fd5b60025f8273ffffffffffffffffffffffffffffffffffffffff1673ffffffffffffffffffffffffffffffffffffffff1681526020019081526020015f205f9054906101000a900460ff16156106a1575f60025f8373ffffffffffffffffffffffffffffffffffffffff1673ffffffffffffffffffffffffffffffffffffffff1681526020019081526020015f205f6101000a81548160ff0219169083151502179055508073ffffffffffffffffffffffffffffffffffffffff167f117c88ce0db1154655f2e289ef1695d90636689127cff2dd8090af544cf6c2b760405160405180910390a25b50565b5f5f9054906101000a900473ffffffffffffffffffffffffffffffffffffffff1673ffffffffffffffffffffffffffffffffffffffff163373ffffffffffffffffffffffffffffffffffffffff1614610729576040517f82b4290000000000000000000000000000000000000000000000000000000000815260040160405180910390fd5b5f60035f6101000a81548160ff0219169083151502179055507f5db9ee0a495bf2e6ff9c91a7834c1ba4fdd244a5e8aa4e537bd38aeae4b073aa336040516107719190611e86565b60405180910390a1565b5f836107888685856119ce565b149050949350505050565b61079b611b12565b60055f8381526020019081526020015f20600301601c9054906101000a900460ff166107f3576040517f9e15e1bc00000000000000000000000000000000000000000000000000000000815260040160405180910390fd5b60055f8381526020019081526020015f206040518060c00160405290815f82015481526020016001820154815260200160028201548152602001600382015f9054906101000a900467ffffffffffffffff1667ffffffffffffffff1667ffffffffffffffff1681526020016003820160089054906101000a900473ffffffffffffffffffffffffffffffffffffffff1673ffffffffffffffffffffffffffffffffffffffff1673ffffffffffffffffffffffffffffffffffffffff16815260200160038201601c9054906101000a900460ff1615151515815250509050919050565b60015f9054906101000a900473ffffffffffffffffffffffffffffffffffffffff1681565b60035f9054906101000a900460ff1681565b5f60035f9054906101000a900460ff1615610953576040517f82b4290000000000000000000000000000000000000000000000000000000000815260040160405180910390fd5b5f5f9054906101000a900473ffffffffffffffffffffffffffffffffffffffff1673ffffffffffffffffffffffffffffffffffffffff163373ffffffffffffffffffffffffffffffffffffffff16141580156109fc575060015f9054906101000a900473ffffffffffffffffffffffffffffffffffffffff1673ffffffffffffffffffffffffffffffffffffffff163373ffffffffffffffffffffffffffffffffffffffff1614155b8015610a4f575060025f3373ffffffffffffffffffffffffffffffffffffffff1673ffffffffffffffffffffffffffffffffffffffff1681526020019081526020015f205f9054906101000a900460ff16155b15610a86576040517f82b4290000000000000000000000000000000000000000000000000000000000815260040160405180910390fd5b5f5f1b8403610ac1576040517f504570e300000000000000000000000000000000000000000000000000000000815260040160405180910390fd5b81831115610afb576040517f561ce9bb00000000000000000000000000000000000000000000000000000000815260040160405180910390fd5b60065f8581526020019081526020015f205f9054906101000a900460ff1615610b50576040517fa0bce24f00000000000000000000000000000000000000000000000000000000815260040160405180910390fd5b60045f8154610b5e906122a6565b91905081905590506040518060c001604052808581526020018481526020018381526020014267ffffffffffffffff1681526020013373ffffffffffffffffffffffffffffffffffffffff1681526020016001151581525060055f8381526020019081526020015f205f820151815f015560208201518160010155604082015181600201556060820151816003015f6101000a81548167ffffffffffffffff021916908367ffffffffffffffff16021790555060808201518160030160086101000a81548173ffffffffffffffffffffffffffffffffffffffff021916908373ffffffffffffffffffffffffffffffffffffffff16021790555060a082015181600301601c6101000a81548160ff021916908315150217905550905050600160065f8681526020019081526020015f205f6101000a81548160ff0219169083151502179055503373ffffffffffffffffffffffffffffffffffffffff1684827fa33bf2a3a9e84740d41d0a3d8e439fb86420cbd26d148ba65a2d77d4a5e97a28868642604051610cf0939291906122ed565b60405180910390a49392505050565b60045481565b60605f8383604051610d1892919061235e565b6040518091039020905060075f8281526020019081526020015f20805480602002602001604051908101604052809291908181526020018280548015610d7b57602002820191905f5260205f20905b815481526020019060010190808311610d67575b505050505091505092915050565b5f5f9054906101000a900473ffffffffffffffffffffffffffffffffffffffff1673ffffffffffffffffffffffffffffffffffffffff163373ffffffffffffffffffffffffffffffffffffffff1614610e0e576040517f82b4290000000000000000000000000000000000000000000000000000000000815260040160405180910390fd5b600160035f6101000a81548160ff0219169083151502179055507f62e78cea01bee320cd4e420270b5ea74000d11b0c9f74754ebdbfc544b05a25833604051610e579190611e86565b60405180910390a1565b5f5f9054906101000a900473ffffffffffffffffffffffffffffffffffffffff1681565b6006602052805f5260405f205f915054906101000a900460ff1681565b5f5f9054906101000a900473ffffffffffffffffffffffffffffffffffffffff1673ffffffffffffffffffffffffffffffffffffffff163373ffffffffffffffffffffffffffffffffffffffff1614610f27576040517f82b4290000000000000000000000000000000000000000000000000000000000815260040160405180910390fd5b5f73ffffffffffffffffffffffffffffffffffffffff168173ffffffffffffffffffffffffffffffffffffffff1603610f8c576040517fd92e233d00000000000000000000000000000000000000000000000000000000815260040160405180910390fd5b60025f8273ffffffffffffffffffffffffffffffffffffffff1673ffffffffffffffffffffffffffffffffffffffff1681526020019081526020015f205f9054906101000a900460ff1661107357600160025f8373ffffffffffffffffffffffffffffffffffffffff1673ffffffffffffffffffffffffffffffffffffffff1681526020019081526020015f205f6101000a81548160ff0219169083151502179055508073ffffffffffffffffffffffffffffffffffffffff167f77b15bf1925eb6403cdcd3a6b7df1451a6e970b6c273dd573b3b5335fef5a7f960405160405180910390a25b50565b60035f9054906101000a900460ff16156110bc576040517f82b4290000000000000000000000000000000000000000000000000000000000815260040160405180910390fd5b5f5f9054906101000a900473ffffffffffffffffffffffffffffffffffffffff1673ffffffffffffffffffffffffffffffffffffffff163373ffffffffffffffffffffffffffffffffffffffff1614158015611165575060015f9054906101000a900473ffffffffffffffffffffffffffffffffffffffff1673ffffffffffffffffffffffffffffffffffffffff163373ffffffffffffffffffffffffffffffffffffffff1614155b80156111b8575060025f3373ffffffffffffffffffffffffffffffffffffffff1673ffffffffffffffffffffffffffffffffffffffff1681526020019081526020015f205f9054906101000a900460ff16155b156111ef576040517f82b4290000000000000000000000000000000000000000000000000000000000815260040160405180910390fd5b60055f8481526020019081526020015f20600301601c9054906101000a900460ff16611247576040517f9e15e1bc00000000000000000000000000000000000000000000000000000000815260040160405180910390fd5b611252838383611a81565b505050565b6002602052805f5260405f205f915054906101000a900460ff1681565b6005602052805f5260405f205f91509050805f015490806001015490806002015490806003015f9054906101000a900467ffffffffffffffff16908060030160089054906101000a900473ffffffffffffffffffffffffffffffffffffffff169080600301601c9054906101000a900460ff16905086565b5f60035f9054906101000a900460ff1615611333576040517f82b4290000000000000000000000000000000000000000000000000000000000815260040160405180910390fd5b5f5f9054906101000a900473ffffffffffffffffffffffffffffffffffffffff1673ffffffffffffffffffffffffffffffffffffffff163373ffffffffffffffffffffffffffffffffffffffff16141580156113dc575060015f9054906101000a900473ffffffffffffffffffffffffffffffffffffffff1673ffffffffffffffffffffffffffffffffffffffff163373ffffffffffffffffffffffffffffffffffffffff1614155b801561142f575060025f3373ffffffffffffffffffffffffffffffffffffffff1673ffffffffffffffffffffffffffffffffffffffff1681526020019081526020015f205f9054906101000a900460ff16155b15611466576040517f82b4290000000000000000000000000000000000000000000000000000000000815260040160405180910390fd5b61147186868661090c565b905061147e818484611a81565b95945050505050565b5f5f9054906101000a900473ffffffffffffffffffffffffffffffffffffffff1673ffffffffffffffffffffffffffffffffffffffff163373ffffffffffffffffffffffffffffffffffffffff161461150c576040517f82b4290000000000000000000000000000000000000000000000000000000000815260040160405180910390fd5b5f73ffffffffffffffffffffffffffffffffffffffff168173ffffffffffffffffffffffffffffffffffffffff1603611571576040517fd92e233d00000000000000000000000000000000000000000000000000000000815260040160405180910390fd5b8073ffffffffffffffffffffffffffffffffffffffff1660015f9054906101000a900473ffffffffffffffffffffffffffffffffffffffff1673ffffffffffffffffffffffffffffffffffffffff167f3f67cc70f736070aaac75db90cef1ab4047521b73e8a38d02852e8bf1a91e7e060405160405180910390a38060015f6101000a81548173ffffffffffffffffffffffffffffffffffffffff021916908373ffffffffffffffffffffffffffffffffffffffff16021790555060025f8273ffffffffffffffffffffffffffffffffffffffff1673ffffffffffffffffffffffffffffffffffffffff1681526020019081526020015f205f9054906101000a900460ff1661171357600160025f8373ffffffffffffffffffffffffffffffffffffffff1673ffffffffffffffffffffffffffffffffffffffff1681526020019081526020015f205f6101000a81548160ff0219169083151502179055508073ffffffffffffffffffffffffffffffffffffffff167f77b15bf1925eb6403cdcd3a6b7df1451a6e970b6c273dd573b3b5335fef5a7f960405160405180910390a25b50565b5f5f60055f8681526020019081526020015f206040518060c00160405290815f82015481526020016001820154815260200160028201548152602001600382015f9054906101000a900467ffffffffffffffff1667ffffffffffffffff1667ffffffffffffffff1681526020016003820160089054906101000a900473ffffffffffffffffffffffffffffffffffffffff1673ffffffffffffffffffffffffffffffffffffffff1673ffffffffffffffffffffffffffffffffffffffff16815260200160038201601c9054906101000a900460ff16151515158152505090508060a00151611807575f915050611820565b5f6118138786866119ce565b9050815f01518114925050505b949350505050565b5f5f9054906101000a900473ffffffffffffffffffffffffffffffffffffffff1673ffffffffffffffffffffffffffffffffffffffff163373ffffffffffffffffffffffffffffffffffffffff16146118ad576040517f82b4290000000000000000000000000000000000000000000000000000000000815260040160405180910390fd5b5f73ffffffffffffffffffffffffffffffffffffffff168173ffffffffffffffffffffffffffffffffffffffff1603611912576040517fd92e233d00000000000000000000000000000000000000000000000000000000815260040160405180910390fd5b8073ffffffffffffffffffffffffffffffffffffffff165f5f9054906101000a900473ffffffffffffffffffffffffffffffffffffffff1673ffffffffffffffffffffffffffffffffffffffff167f8be0079c531659141344cd1fd0a4f28419497f9722a3daafe3b4186f6b6457e060405160405180910390a3805f5f6101000a81548173ffffffffffffffffffffffffffffffffffffffff021916908373ffffffffffffffffffffffffffffffffffffffff16021790555050565b5f5f8490505f8484905090505f5f90505b81811015611a74575f8686838181106119fb576119fa612376565b5b90506020020135905080841015611a3c578381604051602001611a1f9291906123c3565b604051602081830303815290604052805190602001209350611a68565b8084604051602001611a4f9291906123c3565b6040516020818303038152906040528051906020012093505b816001019150506119df565b5081925050509392505050565b5f8282604051611a9292919061235e565b6040518091039020905060075f8281526020019081526020015f2084908060018154018082558091505060019003905f5260205f20015f909190919091505583817f63a6f5af58e056cc8fa63600831f2d061d828a106825ad840c4748a34df4ec5d8585604051611b0492919061243a565b60405180910390a350505050565b6040518060c001604052805f81526020015f81526020015f81526020015f67ffffffffffffffff1681526020015f73ffffffffffffffffffffffffffffffffffffffff1681526020015f151581525090565b5f5ffd5b5f5ffd5b5f73ffffffffffffffffffffffffffffffffffffffff82169050919050565b5f611b9582611b6c565b9050919050565b611ba581611b8b565b8114611baf575f5ffd5b50565b5f81359050611bc081611b9c565b92915050565b5f60208284031215611bdb57611bda611b64565b5b5f611be884828501611bb2565b91505092915050565b5f8115159050919050565b611c0581611bf1565b82525050565b5f602082019050611c1e5f830184611bfc565b92915050565b5f819050919050565b611c3681611c24565b8114611c40575f5ffd5b50565b5f81359050611c5181611c2d565b92915050565b5f5ffd5b5f5ffd5b5f5ffd5b5f5f83601f840112611c7857611c77611c57565b5b8235905067ffffffffffffffff811115611c9557611c94611c5b565b5b602083019150836020820283011115611cb157611cb0611c5f565b5b9250929050565b5f5f5f5f60608587031215611cd057611ccf611b64565b5b5f611cdd87828801611c43565b9450506020611cee87828801611c43565b935050604085013567ffffffffffffffff811115611d0f57611d0e611b68565b5b611d1b87828801611c63565b925092505092959194509250565b5f819050919050565b611d3b81611d29565b8114611d45575f5ffd5b50565b5f81359050611d5681611d32565b92915050565b5f60208284031215611d7157611d70611b64565b5b5f611d7e84828501611d48565b91505092915050565b611d9081611c24565b82525050565b611d9f81611d29565b82525050565b5f67ffffffffffffffff82169050919050565b611dc181611da5565b82525050565b611dd081611b8b565b82525050565b611ddf81611bf1565b82525050565b60c082015f820151611df95f850182611d87565b506020820151611e0c6020850182611d96565b506040820151611e1f6040850182611d96565b506060820151611e326060850182611db8565b506080820151611e456080850182611dc7565b5060a0820151611e5860a0850182611dd6565b50505050565b5f60c082019050611e715f830184611de5565b92915050565b611e8081611b8b565b82525050565b5f602082019050611e995f830184611e77565b92915050565b5f5f5f60608486031215611eb657611eb5611b64565b5b5f611ec386828701611c43565b9350506020611ed486828701611d48565b9250506040611ee586828701611d48565b9150509250925092565b611ef881611d29565b82525050565b5f602082019050611f115f830184611eef565b92915050565b5f5f83601f840112611f2c57611f2b611c57565b5b8235905067ffffffffffffffff811115611f4957611f48611c5b565b5b602083019150836001820283011115611f6557611f64611c5f565b5b9250929050565b5f5f60208385031215611f8257611f81611b64565b5b5f83013567ffffffffffffffff811115611f9f57611f9e611b68565b5b611fab85828601611f17565b92509250509250929050565b5f81519050919050565b5f82825260208201905092915050565b5f819050602082019050919050565b5f611feb8383611d96565b60208301905092915050565b5f602082019050919050565b5f61200d82611fb7565b6120178185611fc1565b935061202283611fd1565b805f5b838110156120525781516120398882611fe0565b975061204483611ff7565b925050600181019050612025565b5085935050505092915050565b5f6020820190508181035f8301526120778184612003565b905092915050565b5f6020828403121561209457612093611b64565b5b5f6120a184828501611c43565b91505092915050565b5f5f5f604084860312156120c1576120c0611b64565b5b5f6120ce86828701611d48565b935050602084013567ffffffffffffffff8111156120ef576120ee611b68565b5b6120fb86828701611f17565b92509250509250925092565b61211081611c24565b82525050565b61211f81611da5565b82525050565b5f60c0820190506121385f830189612107565b6121456020830188611eef565b6121526040830187611eef565b61215f6060830186612116565b61216c6080830185611e77565b61217960a0830184611bfc565b979650505050505050565b5f5f5f5f5f6080868803121561219d5761219c611b64565b5b5f6121aa88828901611c43565b95505060206121bb88828901611d48565b94505060406121cc88828901611d48565b935050606086013567ffffffffffffffff8111156121ed576121ec611b68565b5b6121f988828901611f17565b92509250509295509295909350565b5f5f5f5f606085870312156122205761221f611b64565b5b5f61222d87828801611c43565b945050602061223e87828801611d48565b935050604085013567ffffffffffffffff81111561225f5761225e611b68565b5b61226b87828801611c63565b925092505092959194509250565b7f4e487b71000000000000000000000000000000000000000000000000000000005f52601160045260245ffd5b5f6122b082611d29565b91507fffffffffffffffffffffffffffffffffffffffffffffffffffffffffffffffff82036122e2576122e1612279565b5b600182019050919050565b5f6060820190506123005f830186611eef565b61230d6020830185611eef565b61231a6040830184612116565b949350505050565b5f81905092915050565b828183375f83830152505050565b5f6123458385612322565b935061235283858461232c565b82840190509392505050565b5f61236a82848661233a565b91508190509392505050565b7f4e487b71000000000000000000000000000000000000000000000000000000005f52603260045260245ffd5b5f819050919050565b6123bd6123b882611c24565b6123a3565b82525050565b5f6123ce82856123ac565b6020820191506123de82846123ac565b6020820191508190509392505050565b5f82825260208201905092915050565b5f601f19601f8301169050919050565b5f61241983856123ee565b935061242683858461232c565b61242f836123fe565b840190509392505050565b5f6020820190508181035f83015261245381848661240e565b9050939250505056fea264697066735822122004ce894b93affc9881f0d705cee0e313a8760ed896937e64d927456585d910b764736f6c634300081c0033",
  "linkReferences": {},
  "deployedLinkReferences": {},
  "immutableReferences": {},
  "inputSourceName": "project/contracts/TraceabilityMerkleRegistry.sol",
  "buildInfoId": "solc-0_8_28-1c38440b66261a2bb6fc6478c5bedab48c19f7a1"
}